:020000040800F2
:1000000000040020C9020008CB020008CA02000850
:10001000CA020008CA020008CA020008CA02000890
:10002000CA020008CA020008CA020008A123000888
:10003000CA020008CA020008CA020008CA02000870
:10004000CA020008CA020008CA020008CA02000860
:10005000CA020008CA020008CA020008CA02000850
:10006000CA020008CA020008CA020008CA02000840
:10007000CA020008CA020008CA020008CA02000830
:10008000CA020008CA020008CA020008CA02000820
:10009000CA020008CA020008CA020008CA02000810
:1000A000CA020008CA020008CA020008CA02000800
:1000B00081120008CA02000881130008CA02000861
:1000C000CA020008CA020008CA020008CA020008E0
:1000D000CA020008B1130008CA020008CA020008D8
:1000E000CA020008CA020008CA020008CA020008C0
:1000F000CA020008CA020008CA020008CA020008B0
:10010000CA020008CA020008CA020008CA0200089F
:10011000CA020008CA020008CA020008CA0200088F
:10012000CA020008CA020008CA020008CA0200087F
:10013000CA020008CA020008CA020008CA0200086F
:10014000CA020008CA020008CA020008CA0200085F
:10015000CA020008CA020008CA020008CA0200084F
:10016000CA020008CA020008CA020008CA0200083F
:10017000CA020008CA020008CA020008CA0200082F
:10018000CA020008CA020008CA020008CA0200081F
:10019000CA020008CA020008CA020008CA0200080F
:1001A000CA020008CA020008CA020008CA020008FF
:1001B000CA020008CA020008CA020008CA020008EF
:1001C000CA020008CA020008CA020008CA020008DF
:1001D000CA020008CA020008CA020008CA020008CF
:0401E00031300008B2
:1001F00072B6274880F30888264880F30988264885
:100200004EF60851CEF200010860022080F31488F7
:10021000BFF36F8F00F004FC01F0CAF94FF05530C6
:100220001E491B4A91423CBF41F8040BFAE71C49A6
:10023000184A91423CBF41F8040BFAE719491A4A9F
:100240001A4B9A423EBF51F8040B42F8040BF8E7F0
:1002500000201749174A91423CBF41F8040BFAE7C6
:1002600000F0F6FB00F0E4FB134C144DAC4203DA53
:1002700054F8041B8847F9E702F04AFE104C114D70
:10028000AC4203DA54F8041B8847F9E700F0D8BB06
:1002900000040020000800200000000800000020EA
:1002A00000040020E0370008000800200C080020AF
:1002B00010080020F0120020E0010008E40100080E
:1002C000E4010008E401000892E700F000F8FEE70E
:1002D0002DE9F04FC1F80CD0C3689D46BDE8F08F02
:1002E000002383F311882846A047002001F068FD11
:1002F00001F056FC00DFFEE753B94AB9002908BFF8
:1003000000281CBF4FF0FF314FF0FF3000F072B9F2
:10031000ADF1080C6DE904CE00F006F8DDF804E05C
:10032000DDE9022304B070472DE9F047089E04463A
:100330008846002B4BD18A42154667D9B2FA82F221
:100340004AB1C2F1200701FA02F320FA07F79540FB
:1003500047EA030894404FEA154E230CB8FBFEF71A
:100360001FFA85FC0EFB178843EA084307FB0CF1D4
:10037000994209D9EB1807F1FF3080F01B819942AF
:1003800040F21881023F2B445B1AA4B2B3FBFEF08B
:100390000EFB103344EA034400FB0CFCA44509D9CE
:1003A0002C1900F1FF3380F00781A44540F204814D
:1003B00002382C4440EA0740A4EB0C0400271EB18D
:1003C000D4400023C6E900433946BDE8F0878B429C
:1003D00009D9002E00F0EB800027C6E9000138465D
:1003E0003946BDE8F087B3FA83F7002F47D18B4237
:1003F00002D3824200F2FA80841A61EB03030120E7
:100400009846002EE0D0C6E90048DDE702B9FFDEDD
:10041000B2FA82F2002A40F08F80491B4FEA154E53
:100420001FFA85F80127B1FBFEFC230C0EFB1C1103
:1004300043EA014308FB0CF1994207D9EB180CF190
:10044000FF3002D2994200F2CD808446591AA3B2FD
:10045000B1FBFEF00EFB101443EA044408FB00F865
:10046000A04507D92C1900F1FF3302D2A04500F2B4
:10047000B6801846A4EB080440EA0C409FE7C7F199
:10048000200CBB4022FA0CFE4EEA030E01FA07F4E0
:1004900020FA0CF521FA0CF34FEA1E482543B3FB72
:1004A000F8F92C0C08FB19331FFA8EFA44EA0343BF
:1004B00009FB0AF49C4202FA07F200FA07F10BD991
:1004C0001EEB030309F1FF3080F087809C4240F26D
:1004D0008480A9F1020973441B1BADB2B3FBF8F091
:1004E00008FB103345EA034400FB0AFAA24508D989
:1004F0001EEB040400F1FF336BD2A24569D9023828
:10050000744440EA0940A0FB0289A4EB0A044C456C
:10051000C2464B4654D351D0002E69D0B1EB0A05E8
:1005200064EB030404FA0CFCFD40FC404CEA0505B6
:10053000C6E90054002747E7C2F1200320FA03F779
:10054000954001FA02F021FA03F34FEA154E3843C1
:10055000010CB3FBFEF71FFA85F80EFB173341EAD7
:10056000034107FB08F38B4204FA02F407D9691828
:1005700007F1FF3C2FD28B422DD9023F2944CB1AE1
:1005800081B2B3FBFEF00EFB103341EA034100FBE6
:1005900008F38B4207D9691800F1FF3C17D28B4250
:1005A00015D902382944C91A40EA07473BE73746BC
:1005B000304609E70746E7E61846FBE64145ABD279
:1005C000B8EB020A69EB0E0201381346A4E7604655
:1005D000E9E7184695E76746D1E781467CE70238A8
:1005E0002C4447E7ACF1020C2B442FE7384608E7D0
:1005F0003746E9E6704700BF844641EA000313F03E
:1006000003036DD1403A41D351F8043B40F8043B19
:1006100051F8043B40F8043B51F8043B40F8043BDC
:1006200051F8043B40F8043B51F8043B40F8043BCC
:1006300051F8043B40F8043B51F8043B40F8043BBC
:1006400051F8043B40F8043B51F8043B40F8043BAC
:1006500051F8043B40F8043B51F8043B40F8043B9C
:1006600051F8043B40F8043B51F8043B40F8043B8C
:1006700051F8043B40F8043B51F8043B40F8043B7C
:1006800051F8043B40F8043B403ABDD2303211D31C
:1006900051F8043B40F8043B51F8043B40F8043B5C
:1006A00051F8043B40F8043B51F8043B40F8043B4C
:1006B000103AEDD20C3205D351F8043B40F8043B1C
:1006C000043AF9D2043208D0D2071CBF11F8013B1A
:1006D00000F8013B01D30B8803806046704700BFE0
:1006E000082A13D38B078DD010F003038AD0C3F1EF
:1006F0000403D21ADB071CBF11F8013B00F8013BD1
:1007000080D331F8023B20F8023B7BE7043AD9D38F
:10071000013A11F8013B00F8013BF9D20B78037064
:100720004B7843708B788370604670470000000000
:1007300000000000000000000000000000000000B9
:10074000A2EB0300704700BF02780B78012A28BF94
:100750009A42F5D16DE9044540EA0104CDE902670A
:100760006FF0000C4FEA447212B380EA010414F0F7
:10077000070F6AD100F0070420F0070004F003051A
:1007800021F007014FEAC505F0E8042314F0040F37
:10079000F1E804670CFA05F462EA040266EA04066A
:1007A0000AD063EA0403624667EA0407664603E088
:1007B000F0E80423F1E8046782FA4CF582EA0604C3
:1007C000A4FA8CF46CBB83FA4CF583EA0705A5FA0E
:1007D0008CF595B950E9022351E9026782FA4CF58C
:1007E00082EA0604A4FA8CF483FA4CF583EA07053E
:1007F000A5FA8CF52543DBD09CB92DBAB5FA85F462
:1008000024F0070427FA04F1DDE9026723FA04F370
:1008100003F0FF0001F0FF01FDE80445A0EB01003B
:10082000704724BAB4FA84F424F0070426FA04F1D9
:10083000DDE9026722FA04F202F0FF0001F0FF0195
:10084000FDE80445A0EB0100704714F0030F3CD114
:1008500010F0030428D150F8082B51F8083B82FA15
:100860004CF582EA0305A5FA8CF55DB950F8042C25
:1008700051F8043C82FA4CF582EA0305A5FA8CF59E
:10088000002DE8D02DBAB5FA85F424F0070423FA38
:1008900004F122FA04F202F0FF0001F0FF01FDE88A
:1008A0000445A0EB010070474FEAC40420F00300A8
:1008B00050F8082B21F0030151F8083B0CFA04F41E
:1008C00062EA040263EA0403C9E710F003041AD0E1
:1008D000A1EB040120F00300E40750F8042B06D03C
:1008E0000FD28B785FFAA2F4E41A06D12BB1CB7841
:1008F0005FFAB2F4E41A00D11BB920465DF8104B40
:10090000704701F1040150F8042BCC0721F00301DA
:1009100051F8043B48D824D222F07F4482FA4CF5A7
:1009200094EA1325A5FA8CF50AD165B951F8043B70
:1009300084EA0204B4EB036F0ED150F8042BEBE70A
:100940004FEA132355E035F07F454DD10878FDE897
:100950000445C0F1000070474FEA126203F0FF0344
:1009600047E002EA1C4482FA4CF594EA1345A5FAE2
:100970008CF50AD165B951F8043B84EA0204B4EB62
:10098000034F0CD150F8042BEBE74FEA134330E050
:1009900015EA1C4528D10B884FEA124229E04FEA9C
:1009A000124203EA1C4324E002F0FF0482FA4CF5F1
:1009B00094EA1365A5FA8CF50AD165B951F8043BA0
:1009C00084EA0204B4EB032F09D150F8042BEBE7BF
:1009D0004FEA13630DE015F0FF0F05D10B684FEAE6
:1009E000122223F07F4304E04FF00000FDE80445AD
:1009F000704712BA1BBA82FA4CF482EA0304A4FAD2
:100A00008CF5B5FA85F402FA04F203FA04F34FEA1E
:100A10001260FDE80445A0EB136070470000000081
:100A2000704700BF00000000000000000000000050
:100A3000704700BF00000000000000000000000040
:100A4000FEE700BF00000000000000000000000002
:100A5000F0B4144E144D154C154B164906F1700C9C
:100A600000279C4211D904391A4651F8040F42F864
:100A7000040B9442F9D8DA43144424F003040434F8
:100A800023449D4203D943F8047B9D42FBD866452D
:100A900005D0D6E90413D6E906451036E1E7F0BCE7
:100AA000704700BF4C320008F0120020F012002006
:100AB000F0120020EC3700080000000000000000E9
:100AC00008B500F0ADFA00F063FB00F0B9F900F0F2
:100AD0000FFA00F01DFEBDE8084000F001B800BFAD
:100AE00000F0E6BB00000000000000000000000075
:100AF0004FF080430021022258631961DA60704789
:100B00004FF080430022DA60704700BF0000000011
:100B10004FF0804358637047000000000000000061
:100B2000F8B5154682680669AA420B46816938BF46
:100B30008568761AB54204461DD30AD818462A4657
:100B4000FFF75AFDE368A361A3685B1BA360284617
:100B5000F8BD32461846FFF74FFDAF1B3A4630440A
:100B6000E168FFF749FDA368E2685B1B3A44A261B4
:100B7000A3602846F8BD18462A46FFF73DFDA36945
:100B80002B44A361A3685B1BA3602846F8BD00BF8C
:100B9000836893422DE9F04138BF85680446D0E967
:100BA000046028BF1546361AB5420F4619D30AD835
:100BB0002A46FFF721FDE3686361A3685B1BA3601E
:100BC0002846BDE8F0813246A5EB0608FFF714FD84
:100BD0004246B919E068FFF70FFDE26842446261DE
:100BE000EBE72A46FFF708FD63692B446361E4E7FE
:100BF00030B4029C046200250A4485600261C0E9A9
:100C00000000C160C0E90511C36130BC704700BF7E
:100C1000D0E90532934211D0826810B501325C1CD4
:100C2000826044611970D0E904329A4201D3C368EA
:100C30004361002101F0F4F8002010BD8268002A11
:100C4000EAD04FF0FF3070470000000000000000C5
:100C500070B5202304460E4683F3118803E001F0AB
:100C6000C7F800281ADBA56831462046002DF6D0CB
:100C7000A169A36820694A1C013B8242A360A2616A
:100C800028BFE3680D7828BFA361E3690BB1204654
:100C90009847002383F31188284670BD85F3118897
:100CA00070BD00BF00000000000000000000000058
:100CB0002DE9F04F83B017460193D0F81C804FF018
:100CC000200989F3118832B3002406460D46A24656
:100CD0000CE03046B8F1000F00D0C0478AF311880D
:100CE0005C445D4489F31188A7420DD93A462946F0
:100CF0003046FFF715FF83460028EAD101993046B8
:100D000001F076F80028EFD0002383F31188204605
:100D100003B0BDE8F08F1446F6E700BF0000000006
:100D200030B4029C82608D18C0E90315C0E9073415
:100D3000C0E90000C0E9051130BC704700000000A8
:100D4000F8B504460F461646202383F3118803E0C6
:100D500001F04EF8002818DBA56831462046002D2A
:100D6000F6D06269A368511C013B6161A3601770F2
:100D7000D4E904329A4224BFE3686361E36903B1B2
:100D80009847002080F31188F8BD85F31188F8BDDD
:100D900038B5D0E905239A420FD082680569591CFD
:100DA000013282608161A9421C7801D3C3688361EA
:100DB000002101F035F8204638BD8268002AECD0C9
:100DC0004FF0FF3038BD00BF000000000000000001
:100DD0002DE9F04F83B017460193D0F81C804FF0F7
:100DE000200989F3118832B3002406460D46A24635
:100DF0000CE03046B8F1000F00D0C0478AF31188EC
:100E00005C445D4489F31188A7420DD93A462946CE
:100E10003046FFF7BDFE83460028EAD101993046EF
:100E200000F0E6FF0028EFD0002383F3118820466E
:100E300003B0BDE8F08F1446F6E700BF00000000E5
:100E400000F05EBA0000000000000000000000009A
:100E50000023012202704360C3600374704700BF27
:100E60000C30FFF725BF00BF0000000000000000AD
:100E70000C304FF0FF33FFF71BBF00BF0000000036
:100E80003030FFF7A5BF00BF0000000000000000E9
:100E900030304FF0FF33FFF79BBF00BF0000000072
:100EA0000C30FFF7D5BE00BF0000000000000000BE
:100EB0000C304FF0FF31FFF7CBBE00BF0000000049
:100EC0003030FFF73DBF00BF000000000000000011
:100ED00030304FF0FF32FFF733BF00BF000000009B
:100EE000002070470000000000000000000000002B
:100EF00000F0F6BA00000000000000000000000052
:100F000070B50E4B044682B040F8043B01260094B5
:100F100015460B46606004F1540104F10C00267282
:100F20001022FFF765FE00942B4604F1640104F1E2
:100F300030001022FFF7F4FE02B070BDCC32000882
:100F400010B52023044683F3118800F0D9FA022358
:100F50002372002383F3118810BD00BF000000003E
:100F600038B5436904460D463BB1294604F10C00EF
:100F7000FFF74EFE00280BDB38BD0421084401F0CA
:100F8000B7F8294604F10C00FFF742FE0028F3DA17
:100F9000201D4FF48061BDE8384001F0A9B800BFC2
:100FA000430910B49B0000F1604404F5614403F16F
:100FB0006043090103F5614300F01F000122C9B23B
:100FC00084F8001302FA00F0C3F8800110BC186026
:100FD000704700BF0000000000000000000000009B
:100FE000062108B50846FFF7DBFF06210720FFF7BB
:100FF000D7FF06210820FFF7D3FF06210920FFF7BE
:10100000CFFF06210A20FFF7CBFF06211720FFF7AD
:10101000C7FF06212820BDE80840FFF7C1BF00BF79
:101020001A4B1B481A696FEAC25200216FEAD2526A
:1010300010B41A614FF0FF3419615A695C6159614B
:101040001A6A62F080521A6219625A6A5C625962C4
:101050001A6C42F080521A641A6E42F080521A667C
:10106000026842F4807202601A6F02F44072B2F5B4
:10107000007F03D04FF480321A671967044A10BC0E
:10108000536823F400735360FFF7AABF003802408F
:1010900000700040000000000000000000000000A0
:1010A000314B324A4FF080504FF440411864116088
:1010B0001A6842F001021A601A689207FCD5996812
:1010C000294A21F003019960936813F00C03FBD1C6
:1010D0001068254900F0F90010609360136843F42C
:1010E000803313600B689803FCD54B6F1E4A43F0A6
:1010F00001034B67536F9907FCD51D4B5360136871
:101100001A4943F0807313604B685A04FCD5164AA1
:1011100013689B01FCD5174B174991601A68174B50
:101120009A4216D0164B40F205721A600E4A936826
:1011300043F002039360936803F00C03082BFAD189
:10114000536C43F480435364536E43F480435366BB
:1011500070470C4A0C4B12689A42E3D1084B40F29C
:1011600005121A60E2E700BF00380240007000403C
:1011700008544007002004E00094883811640020DF
:10118000003C024000ED00E041C20F4100000000C1
:10119000704700BF000000000000000000000000D9
:1011A0002DE9F04F02F00309C2F3800EC2F3C10C27
:1011B000C2F34117C846C2F3C31200264FF0010A1A
:1011C00016E0D0F800B003EA0B0343EA0803072E49
:1011D000036044D8036A1D402C43046249083CD094
:1011E0004FEA4E0E4FEA8C0CBF004FEA88080136DA
:1011F000CB07F3D543680AFA06F423EA040343EA6B
:101200000E03436003257300846805FA03F3DB4390
:101210001C4044EA0C048460C56806F00704A4007E
:101220001D404FF00F0B3D430BFA04FBB9F1020FC9
:10123000C56002FA04F46FEA0B05C2D1072E13D879
:10124000D0F820B00BEA05052C4304620468234063
:1012500043EA080349080360C2D1BDE8F08F436A3E
:101260001D402C434462B9E7D0F824B00BEA0505D1
:101270002C434462EAE700BF0000000000000000C9
:101280004FF080431A69920701D401F099B810B564
:1012900000241C61202383F3118800F091FA84F369
:1012A0001188BDE8104001F08BB800BF00000000BD
:1012B000114B12481A6C42F0010270B41A641A6E93
:1012C00042F001021A6681684FF080430022012437
:1012D00041F0010142F2CF064FF0FF3581609E627E
:1012E0000821DD621C209A615A63DA605A605C61F1
:1012F0001C6070BCFFF754BE00380240002004E0C0
:1013000010B5044C2046FFF7A3FD0422024B2274C3
:10131000A36110BD1008002000080040000000007C
:10132000836970B51A69DC681440E2B2D243A6073B
:1013300005461A6103D543681B6903B198476007E6
:1013400004D56B689B690BB128469847210704D5E3
:101350006B681B6A0BB128469847E20604D56B6898
:101360009B6A0BB128469847E30706D56B689B68D4
:101370001BB12846BDE87040184770BD0000000052
:1013800008B50348FFF7CCFFBDE8084001F018B8E6
:101390001008002000000000000000000000000015
:1013A000024AD36843F08003D360704700100140C5
:1013B0002DE9F843464E756FD5F80C802B68DA0599
:1013C0009CB250D4202383F3118814F02F0F2FD018
:1013D000404FA7F1040907E0A0066B681DD42C68F4
:1013E000A4B214F02F0F23D02307F5D014F0080F68
:1013F0000CBF00218021E00748BF41F02001A20777
:1014000048BF41F04001630748BF41F4807138464E
:1014100000F06EFEA0066B68E1D596F8781048469D
:101420001940FFF79DFD2C68A4B214F02F0FDBD1FB
:10143000002383F3118818F0800F01D0220621D4F5
:1014400018F0400F0BD0630609D5202383F31188D1
:10145000D6E911239A4222D0002383F31188BDE8F4
:10146000F84300F0ADBF202383F311884FF40071DF
:10147000301D00F03DFE6FF480732B60002383F37A
:1014800011889FE7202383F311881348FFF780FC1E
:10149000002811DB6860002383F31188D0E7B36B69
:1014A000002BD9D010210B4800F022FE4FF6BF735D
:1014B00008EA0303EB60CFE70821064800F018FEB6
:1014C0004FF63F7308EA030343F04003EB60E2E7A3
:1014D0002C080020300800205C08002000000000DC
:1014E00010B5044C044A20460021FFF709FD034BC8
:1014F000636710BD2C080020A113000800100140F4
:1015000070B5037A224C002918BF0C46012B054602
:101510002DD06B6F1F4A2168934208D002F580627C
:10152000934204D01C4AB2FBF1F29A6003E01B4ADA
:10153000B2FBF1F29A60A288E688208942F4045155
:1015400041F02C0146F0400640F00100002402F476
:10155000A0521E61B2F5806F5861D9601C60196895
:101560005B680CBF7F23FF2385F8783070BD0C4B80
:101570009842CED10B4B5A6C42F010025A645A6E0C
:1015800042F010025A660C212520FFF709FDC0E742
:10159000F43200080010014080DE800200BD010529
:1015A0002C0800200038024000000000000000006D
:1015B000434A44494448F0B51669444D444C454FAC
:1015C00040F2FF1C002346EA0C0616611361166BFD
:1015D00046EA0C061663166D46EA0C0616656FF4AD
:1015E000A84E3D4E4B604FF6FF72C1F808E0DFF8A1
:1015F00010C1CE60394E4A61C1F820C04E62DFF89A
:1016000004C1C1F800C04FF410766E604FF0FF3196
:10161000DFF8F4C0A9604FF08066C5F80CC06A61BD
:101620004FF0400C2E622E4EC5F824C02E6005F1FE
:10163000A25505F5443505F5AA756360A160E5601E
:101640004FF0C04562612562264D6562264D2560DA
:10165000264C43608160C46040F6FF744461244CB2
:101660000362244E4362244D0460244C7B6000F5E9
:10167000A050B960FB607A613B627B62C7F800C032
:101680007360B160F36072613362736233606B6088
:10169000A960EB606A612B626B622B606360A16082
:1016A000E360626123626362236043608160C360C0
:1016B000BDE8F0404261036243620360FFF7F0BCA3
:1016C0000038024000000240000C024000040240CA
:1016D00000080240001002405400014000AA0A0025
:1016E00080200800000606000180200255505500A9
:1016F000000100550014024000180240001C024086
:101700000000565500AAA02A1545515500000000BA
:10171000704700BF00000000000000000000000053
:10172000FEE700BF00000000000000000000000015
:1017300070B51C4C1C4E1D4D00F05AF900F090F88D
:1017400000F0AEFB00F0ECFC00F04AFD00F000FE03
:1017500020468022164900F02BFA164B012280F811
:101760002020D96844F8180C0024C461124A4FF6AE
:10177000FF0001400A43DA60F26842F08072F260D2
:101780002A68102042F0010220212A60D87783F8CD
:10179000221084F3118862B60848BDE8704000F05A
:1017A00067BA00BFB0090020F0ED00E0001000E0D3
:1017B0002833000800ED00E00003FA0500330008BC
:1017C0002DE9F84FDFF888904D464FF0804855F8E6
:1017D0001C4FA3680026D8F82410D9F82820A1EBC4
:1017E000020A9A451FD320270CE086F3118820694E
:1017F000D84787F31188D9F81C40A3689A45EAD3E3
:10180000D9F828202168D4F80CB01A44A942C9F8A4
:101810002820AAEB030A4D60C9F81C10E660E4D149
:10182000FFF76EF9E1E7D9F81C30AB420ED09A68A9
:10183000C9F82810A2EB0A029A60A068BDE8F84F28
:1018400002282CBF0818881CFFF762B9BDE8F88F82
:1018500080090020000000000000000000000000DF
:10186000054B4FF0FF30002103F11C02C3E90901D1
:10187000C3E90722704700BF800900200000000074
:10188000F8B51F4FBC4602295CF81C5F03614FF09E
:10189000804338BF022165450646C2605C6A1ED09F
:1018A000B86AAB68241A641815D29C4222D3A342AA
:1018B00004D22D68E41AAB68A342FAD36B68C6E978
:1018C00000531E606E60B460AB684FF0FF321C1BAB
:1018D000AC607A62F8BD2D68E41AAB68E7E7C7E947
:1018E0000700BC626018C6E90055B160BDE8F84069
:1018F000FFF7FEB82044FFF70BF9AB68D7E700BF4E
:10190000800900200000000000000000000000002E
:10191000194BDA69824210B40FD0D0E900210A6075
:1019200002681C3300249A425160C46003D081686D
:1019300093680B44936010BC70471846116840F8D8
:101940001C1F002481424860D46012D094688A68C9
:10195000986A14444FF080428C60526A121A944282
:10196000E9D9A11A012998BF941C204410BCFFF7A3
:10197000CFB810BCFFF7C4B88009002000000000F9
:10198000202383F3118890F82030072B0ED8DFE84E
:1019900003F0280D0D2408040D08426A93680133F2
:1019A0009360D0E900231A600268536010B40022EB
:1019B0004FF0FF3481680D4B446280F820201B6893
:1019C0009A688A42FBD25A680021C0E9003210604E
:1019D000586081F3118810BC7047436A00221A6076
:1019E000E4E7002383F31188704700BF80090020DB
:1019F000034B0022C3E90033C3E904339A60704704
:101A0000800900200000000000000000000000002D
:101A100001460022074B806881F820201B689A68E5
:101A20008242FBD25A680846C1E90032116059600F
:101A3000704700BF80090020000000000000000087
:101A4000084B99691A6810B481F820001068186072
:101A50000124436082F82040104610BC9A61FEF7D2
:101A600037BC00BF8009002000000000000000001B
:101A700030B54B1C87B012D00C4C0D4AA3690546FB
:101A800001A8FFF7FDFE2846FFF7DAFF049B13B11C
:101A900001A8FFF73DFFA369586A07B030BD034CAA
:101AA000FFF7CEFFA369586A07B030BD8009002058
:101AB0008119000800000000000000000000000084
:101AC000164B70B49E6985680446B06861628542B1
:101AD0004FF000020CD884F820201B689A689542C9
:101AE000FBD95A68C4E9003214605C6070BC70476E
:101AF00086F820201A46126891688842FBD95168FE
:101B00007160012032600E60566084F8200031461A
:101B100020469C6170BCFEF7DBBB00BF8009002043
:101B2000044B1A689B6990689B68984294BF002098
:101B30000120704780090020000000000000000024
:101B40000D4B1868026810B401219C691A6053603B
:101B500080F820100022A16884F8202098611B687A
:101B60009A689142FBD35A682146C4E90032146056
:101B70005C6010BCFEF7ACBB8009002000000000D8
:101B8000044B1A689B6992689B689A4200D8704718
:101B9000FFF7D6BF80090020000000000000000011
:101BA000FFF7CEBF000000000000000000000000B2
:101BB00070B40D4CC26365698260022601228161A6
:101BC000068480F8222000F1280600F12C02002172
:101BD00045610461C0E90D1128616061C0E90A62D4
:101BE000026370BC704700BF800900200000000045
:101BF00083684168194AF0B4D0E90475022643F8B5
:101C00002C1C0124002143E91B750568C06803F8FA
:101C1000271C03F8286C03F8264C546943F8400C41
:101C200043F80C0C43F8305CA3F16C000C4D43F806
:101C30003C0C43F84C5CA3F1480043E90511A3F1C7
:101C40002005A3F11C0143E90E242061506143E902
:101C5000085143F8181CF0BC704700BF80090020F1
:101C6000E102000800000000000000000000000089
:101C700010B5202383F31188FFF7BAFF0021044633
:101C8000FFF71EFF002383F31188204610BD00BF1D
:101C9000F8B5069D202484F3118848394418164E5F
:101CA000E061716944F8243C44F8205CA4F124000C
:101CB00002250123A260E060E263258484F82230DB
:101CC00004F1280204F12C0300250C4F0C4844F8C1
:101CD000047CC4E90461A061C4E90D5520460C618F
:101CE000C4E90A23236329467461FFF7E9FE85F3FB
:101CF00011882046F8BD00BF80090020E1020008DD
:101D00002033000800000000000000000000000078
:101D1000202383F3118890F82230013B80F8223091
:101D2000036A03F0FF130F2B03D0002383F3118802
:101D30007047D0E904231A61016900224B6182F3E4
:101D4000118890F8213003F00303012B06D0022BF9
:101D500003D1C169006C00F0E3BA7047C06900F0BC
:101D60004FBA00BF000000000000000000000000AB
:101D700038B5104B9C69A36A606204F12805AB4238
:101D800007D01A68A2621846FFF742FEA36AAB4268
:101D9000F7D194F8223043B994F821309B0704D14D
:101DA000D4E904231A61226953610F20BDE8384049
:101DB000FFF746BE80090020000000000000000080
:101DC000202383F31188FFF7D3BF00BF000000007A
:101DD00008B50146202383F311880820FFF748FE49
:101DE000002383F3118808BD0000000000000000FC
:101DF00061B1084B10B4024644689B690420C3E9F2
:101E000000242360536010BCFFF732BE4FF0FF3058
:101E1000704700BF800900200000000000000000A3
:101E20000268904209D010B41468046003466360ED
:101E30001046516210BCFFF7EBBD70470000000078
:101E4000014B5B6883607047001000E000000000F9
:101E50000E4B0F4A5B68C168F0B48468566F4268E5
:101E60001B1BD0E904459B1BE61845F10007934274
:101E7000026888BF436001319342C0E90467C0E94A
:101E8000023138BF0360F0BC704700BF001000E0B3
:101E90008009002000000000000000000000000099
:101EA00010B50C4C86B000234FF0FF31002268467D
:101EB0006367CDE9013303930023CDE90423009147
:101EC000FFF7BEFF6846FFF7C3FF029B636706B0DC
:101ED00010BD00BF800900200000000000000000CD
:101EE000202383F31188054B186990F822300133C1
:101EF00080F82230002383F3118870478009002086
:101F000010B5202383F31188084B04699C421DBF40
:101F100094F82230013384F822300024002383F324
:101F20001188FFF7F5FE204610BD00BF8009002094
:101F30000023C0E900008360704700BF000000007C
:101F4000F8B5374A83689569002B40D0A9689A682C
:101F50009142044607D993F820209960062A3BD085
:101F6000072A15D042B32646234603E09968AA689B
:101F700091422AD31B689C42F8D173680620C5E9B8
:101F800000631D6075606C62BDE8F840FFF758BDE6
:101F9000D3E9000210605E6A18684260324602E0CF
:101FA0009068884232D312689642F9D17268C3E9C8
:101FB000006213607360D6E7D3E9001211601968FC
:101FC00018464A60FFF724FDCDE71E46D5E7AB6B08
:101FD000C0E90253A863F8BDD3E9000210605E6A4D
:101FE000186837464260324602E09068884214D34F
:101FF00012689642F9D17A68A968C3E90072136041
:102000007B60B3689A688A42A5D3ACE716467268CB
:10201000C3E9006213607360A5E71746EBE700BFF2
:102020008009002000000000000000000000000007
:1020300008B5202383F31188FFF782FF002383F381
:10204000118808BD00000000000000000000000032
:10205000174B70B59D69202383F311880468C3680A
:10206000AB6384421DD0E96B4BB11A68934203D035
:102070009268914238BF1146DB68002BF5D10346C8
:102080002268A66BA96020461A605360C3E9024625
:10209000A363FFF7BDFCFFF773FD002383F31188F3
:1020A00070BD0023A360002383F3118870BD00BFBF
:1020B0008009002000000000000000000000000077
:1020C000436B90F8202019430A2A416309D00B2A58
:1020D00000D07047436A8B43FBD100234362FFF774
:1020E00097BC436A1942F8D1704700BF0000000056
:1020F00070B50468A0420FD006460D46E3682B4336
:10210000E36015B12269134203D0D4E90101FFF75E
:10211000D7FF2468A642F1D170BD00BF00000000C7
:10212000024B0349034AC3E900127047F809002033
:10213000F01200200000022000000000000000005B
:1021400070B40B4DD5E9006432440138013A4318AC
:10215000501849420840194001448C4204D38E4231
:1021600002D8296070BC7047002070BC704700BF67
:10217000F80900200000000000000000000000003E
:10218000F0B4202383F311880D4DD5E900744E1E61
:102190003A448319494290190B4008400344A34232
:1021A00007D89F4205D82B60002383F31188F0BC29
:1021B00070470020002383F31188F0BC704700BFF4
:1021C000F8090020000000000000000000000000EE
:1021D000024BD3E90030C01A704700BFF809002055
:1021E000044B054A1A6003F10C000022C3E90122E6
:1021F000FFF79EBE000A00208121000800000000B9
:10220000F8B550E902530733DB0805F10C0740F835
:10221000043C0646A0F1080404353846FFF708FFE1
:102220002B46AB421A6801D09C4202D91AB19442A3
:1022300001D31346F5E756F8041C46F8082C1C6039
:102240004A1C56F8080C04EBC20181420AD05968B6
:102250004A1C03EBC202944212D03846BDE8F84053
:10226000FFF7F6BE496854F8320046F8080C0A44F5
:1022700046F8042C59684A1C03EBC2029442ECD184
:1022800056E9020201321144186059603846BDE82F
:10229000F840FFF7DDBE00BF0000000000000000B6
:1022A0002DE9F843174C002818BF044604F10C0729
:1022B000384689469046FFF7BBFE6368F3B10024B9
:1022C00025462646D3E90030844206F1010605443E
:1022D00038BF0446002BF5D1B9F1000F02D0ED0054
:1022E000C9F80050B8F1000F02D0E400C8F800406F
:1022F0003846FFF7ADFE3046BDE8F8831C461D4664
:102300001E46E9E7000A002000000000000000006F
:1023100010B400240460C0E90112C36010BC70470F
:10232000202383F3118803680B600023016083F38B
:10233000118870470000000000000000000000004D
:102340000022FFF7FDBE00BF0000000000000000FB
:1023500070B5114C114D2046FFF7EAFD04F110064F
:102360002B4604F11400042214212661FFF7D0FF4C
:1023700004F124062B46042204F1280504F12C0064
:102380001C21C4E90965FFF7C3FF04F13C0204F115
:102390004003C4E90F2370BD1C0A0020412300083C
:1023A000EFF30983203383F30988002383F3118833
:1023B000704700BF000000000000000000000000A7
:1023C000202383F311880F4B5B6813F4006302D161
:1023D00083F31188704710B5EFF309844FF08073D1
:1023E00044F8043CA4F1200383F30988FFF798FB29
:1023F00018B1054B44F8083C10BD044B44F8083CA8
:1024000010BD00BF00ED00E0F1020008F40200087A
:102410002DE9F04F044687B00E46904600273178EC
:10242000721C59B125290DD023681646DB68204659
:10243000984731780137721C0029F3D1384607B02C
:10244000BDE8F08F71782D2903BFB178B21C4FF031
:10245000010C4FF0000C302903BF517801324FF0CE
:10246000300A4FF0200A0132002507E098F80030CA
:1024700008F1040812F8011B03EB4005A1F1300339
:10248000DBB2092B964605EB8500F3D92A29EDD05E
:102490002E294FF000024AD001F0DF034C2B0EF141
:1024A000010650D0A1F14103A1F14400DBB2342870
:1024B00000F21A81DFE810F06A0118011801180112
:1024C00018016A01180118011801180118011401F6
:1024D00018011801180118011801E5001801180168
:1024E00073011801180118011801180118011801C9
:1024F00018011801180192006A0118011801180149
:1025000018016A01180118011801180118011401B5
:102510001801180118016F001801E50018011801D1
:10252000730198F8003008F1040803EB40021EF82C
:10253000011BA1F13003DBB2092B02EB8200F4D9BD
:102540002A29EED0A8E79EF800300BB3A3F144018E
:10255000342900F2CB80DFE801F0D9C9C9C9C9D953
:10256000C9C9C9C9C9C4C9C9C9C9C995C9C9D6C907
:10257000C9C9C9C9C9C9C9C9C942D9C9C9C9C9D932
:10258000C9C9C9C9C9C4C9C9C91FC995C9C9D6005A
:102590000B467646DAE77646D8F8009008F104084C
:1025A000B9F1000F00F0FF8099F800304846002A8A
:1025B00040F00081002B00F00E8147F6FE724B4682
:1025C00001E0013A03D413F8011F0029F9D11B1AC5
:1025D000ED1A013B00934FF0200A0DE076460DF115
:1025E0001809D8F8003009F80C3D0023013D08F126
:1025F000040800934FF0200A002D1EDBBCF1000FF1
:102600007DD16B42002D79D099F8001022682D29D8
:10261000D26800F0A9809B4601E02368DA68514641
:10262000204690471BF1010BF7D1009A002A5B4628
:102630002F44FFF6F4AE1D4604E0009B002BFFF68E
:10264000EEAE0025DDF800B0236819F8011BDB6849
:102650000BF1FF3B20469847BBF1FF3FF4D1009BB5
:1026600001373B441F46002D3FF4D9AEA9462368ED
:102670005146DB6820469847B9F10109F7D12F444C
:10268000CDE676464FF00A0958F8042B0DF11701F4
:1026900000E00146B2FBF9FE09FB1E2202F1300305
:1026A000392BC8BF02F13703DBB2724601F8013C97
:1026B000481E002AEDD10DF11702A2EB000B0DF11F
:1026C0000C094A46584401E011F8013B02F8013B6D
:1026D0008142F9D10BF1FF33A5EB0B0500938BE79A
:1026E00076464FF00809CFE70B4676460DF11809FC
:1026F000013D09F80C3D002300937DE71D46009B3A
:10270000002B9FDAAFE74FF01009BDE708F1040195
:10271000D8F800208846002A54DB0DF10C09484601
:1027200000F10B03009319462E4BA3FB02E3DB08D9
:1027300003EB830B9E46A2EB4B033033DBB27246B6
:1027400001F8013D002AEFD1009A521A024401E03B
:1027500011F8013F00F8013B9042F9D1A0EB0900CC
:10276000431E2D1A009347E7BAF1300F7FF453AFA1
:10277000204601939047009B2268013B0093019BF8
:10278000D268013709F101099B4648E74146192BF8
:1027900051F8042B764688BF8846BCD8B8E7764601
:1027A0004FF0100970E710488146002A3FF405AF4A
:1027B000013A04E7002BFBD14FF0FF3300934FF0B9
:1027C000200A19E72D2352428DF80C300DF10D002F
:1027D0000DF10C09A4E74FF0FF3300934FF0200AEE
:1027E0000CE700BFCDCCCCCC40330008000000008B
:1027F0000EB400B582B003AA52F8041B0192FFF791
:1028000007FE02B05DF804EB03B070470000000063
:1028100070B50E46F0B1044630601149204600F014
:10282000FBFC215C222904EB00050DD00C49284655
:1028300000F0D0FC306018B1421C002332600370FD
:102840002B7853B1284670BD0135284600F04EFC68
:102850003060F0E70C68002CDFD10025284670BD01
:1028600048330008000000000000000000000000E5
:10287000014B1B60704700BF600A00200000000091
:102880002DE9F0410468013A256882B088468F1826
:102890000E46AB6801220DF107012046984758B358
:1028A0009DF80730082B12D07F2B194620460ED0FA
:1028B0000D2B25D01F2B2568EBD9BE42E9D2EB6842
:1028C00098479DF80730337025680136E1E74645A3
:1028D0004FF0080120462568DBD0EB689847236855
:1028E0002021DB682046984723680821DB682046C2
:1028F0009847013E2568CCE7012002B0BDE8F08191
:102900000349FFF775FF0020307002B0BDE8F08189
:102910005C33000800000000000000000000000020
:102920002DE9F04FD0E9005399B053490193074680
:102930002846FFF75DFF28465049DFF86081DFF841
:1029400060A1FFF755FF4FF0000941462846FFF709
:102950004FFF0023402208A93846FFF791FF0028C7
:1029600035D102A908A8FFF753FF02A906460020A7
:1029700003AC4FF0000BFFF74BFF60B1BBF1040F4E
:102980001ED044F8040B02A900200BF1010BFFF745
:102990003FFF0028F2D118AB03EB8B0242F8540C36
:1029A000002ED2D051463046FDF7CEFEA0B9BBF185
:1029B000000F25D0524632492846FFF719FFC4E7D9
:1029C00030492846FFF714FFCDF81C90BDE74FF4BF
:1029D0007A70FFF7FDF9C4E72B4B1868002832D056
:1029E000294C02E054F8080F68B33146FDF7ACFEFD
:1029F0000028F7D16468594603AA2846A047A4E7EF
:102A000022492846FFF7F4FE1F4B1A684AB1204CB2
:102A10001E4621462846FFF7EBFE56F8082F002AEF
:102A2000F7D1019E56B1326842B1194C2146284671
:102A3000FFF7DEFE56F8082F002AF7D10E49284688
:102A4000FFF7D6FE81E7019C5CB1206818B908E069
:102A500054F8080F28B13146FDF776FE0028F7D16B
:102A6000C8E732460B492846FFF7C2FE0A49284606
:102A7000FFF7BEFE69E700BF5C3300084C33000877
:102A8000883300086833000864360008943300086F
:102A9000A4330008A8330008AC33000860330008F2
:102AA000803300080000000000000000000000006B
:102AB000002903DD074A0849FFF79ABE202383F364
:102AC00011884FF080420023526A83F31188034932
:102AD000FFF78EBEE435000888330008EC350008A7
:102AE000012903D0034A0449FFF782BE1268034953
:102AF000FFF77EBEB433000888330008C4330008F3
:102B0000002903DD194A1A49FFF772BE10B5194AA8
:102B1000194982B00446FFF76BFE184A184920464F
:102B2000FFF766FE174A18492046FFF761FE174A6D
:102B300017492046FFF75CFE164A17492046FFF763
:102B400057FE164A16492046FFF752FE154A164907
:102B50002046FFF74DFE154B00932046144B154AB7
:102B60001549FFF745FE02B010BD00BFCC33000889
:102B700088330008D4330008DC330008F033000841
:102B8000383400084C340008583400086C3400080D
:102B9000783400088C340008A4340008B8340008E5
:102BA000E4340008F8340008203500085C350008DB
:102BB00034350008383500084435000800000000AE
:102BC000002903DD194A1A49FFF712BE2DE9F04723
:102BD0001849DFF86490DFF86480DFF864A086B0FD
:102BE0000646FFF705FEFFF77BF90446D4E9061217
:102BF00094F8200094F8225059F82000A768E36860
:102C00000094002908BF4146013DCDE90301029728
:102C1000514601953046FFF7EBFD2046FFF770F96E
:102C200004460028E2D106B0BDE8F087F43500087C
:102C300088330008FC35000894360008B0330008DB
:102C40003C3600080000000000000000000000000A
:102C500030B5002983B005DD124A1349FFF7C8FDDE
:102C600003B030BD044601AA69460020FFF718FBF7
:102C70000546FFF7ADFA0D4902462046FFF7B8FDBD
:102C80002A460B492046FFF7B3FD009A0949204622
:102C9000FFF7AEFD2046019A0749FFF7A9FD03B0F3
:102CA00030BD00BF68350008883300086C35000867
:102CB0008C350008A4350008C43500080000000069
:102CC00003681B68184700BF0000000000000000F8
:102CD000224B10B498424FF0500414702BD0204B6C
:102CE000984214D01F4B98422BD01F4B98422BD0A8
:102CF0001E4B984222D01E4B984228D01D4B984222
:102D000028D01D4B984204BF4823537001E0422352
:102D100053701A4B10BCA3FB0103DB0803EB8303C6
:102D2000A1EB4303092903F130038CBF312130218A
:102D3000D3709170704741235370EAE74523537075
:102D4000E7E743235370E4E744235370E1E7462366
:102D50005370DEE747235370DBE700BF00000240FB
:102D60000004024000080240000C02400010024033
:102D70000014024000180240001C0240CDCCCCCC14
:102D800000B583B00A460090044B4FF4E47108305C
:102D9000FEF77EFF03B05DF804FB00BFC12C000806
:102DA00080B5D0F8D411012584B0044605FA01F1AC
:102DB000D0F8D0012022FEF7F3F9224B93E8070068
:102DC00001AB03C3D4F8D4111A70D4F8D00102AA0D
:102DD000FFF77EFF1C4BD4F8D4119B69D4F8D021A7
:102DE00001A8986100261369CB40DF070AD532207D
:102DF000FEF7EEFFD4F8D021D4F8D4111369CB40FC
:102E0000DF07F4D41369D4F8DC0194F8D97184F89D
:102E1000D8510130CB4087F00107C4F8DC01D80756
:102E200084F8D9710AD43220FEF7D2FFD4F8D02129
:102E3000D4F8D4111369CB40DB07F4D584F8D861FA
:102E4000D1E700BF683700088009002000000000BB
:102E500038B50D46144600214FF4E87200F0FCF836
:102E600000220649C0F8D051C0F8D441016080F872
:102E7000D82180F8D921C0F8DC2138BD7C37000882
:102E800010B5114C82B0204640F282324FF40071EE
:102E9000FEF786F940F2823220464FF48061FEF759
:102EA0007FF90A490A48FEF74BF8FFF7E1FC094BA6
:102EB00000938022084B09484FF49961FEF7E8FE21
:102EC000074B836102B010BD0000024000080020E3
:102ED0002C0800208C37000821290008680A0020EF
:102EE000843700080000000000000000000000001F
:102EF000002902DD0249FFF77BBC0249FFF778BCDD
:102F000094370008A437000800000000000000000B
:102F10002DE9F04F83B0FDF7D3FDFEF709FC012248
:102F200040213C483C4FDFF8FC803A4DFEF738F931
:102F3000012280213748FEF733F9384B009303F123
:102F400008008022364B4FF4E471FEF7A1FE344BAB
:102F5000009780224FF4E47107F10800FEF798FE15
:102F6000FFF78EFF1FE0A5F81AB0A5F818A0FEF72E
:102F70002FFFD7F8DC31A5F818B0A8FB03125208D0
:102F800002EB42029B1A03FB0444A5F81AA040F28C
:102F9000E73000214FF47A720023E6FB0401FDF7CD
:102FA000ABF9FEF715FFD7F8DC31A8FB0312520886
:102FB00002EB42029B1A642403FB044342F21076A4
:102FC00040F2E7300021E6FB03014FF47A72002360
:102FD000FDF792F9114B93F8D9314FF0400B4FF0B8
:102FE000800A002BBFD14FF0800AA5F81AB0A5F8CF
:102FF0001AA0FEF7EDFED7F8DC21A5F818B0A8FB63
:1030000002135B0803EB4303D31A03FB0444A5F844
:1030100018A0BCE70000024010110020300F002073
:10302000C12C0008ABAAAAAA000000000000000002
:1030300010B5064C064821460422FFF709FF214639
:1030400003220448BDE81040FFF702BF0010024011
:10305000300F002010110020F0B4860743D0541E1A
:10306000002A3ED0CAB2034602E014F1FF3438D33E
:1030700003F8012B9D07F8D1032C2BD9CDB245EADB
:1030800005250F2C45EA054516D9A4F110073F097F
:1030900003F1200606EB071603F1100242E904557E
:1030A00042E902551032B242F8D104F00F04013760
:1030B000032C03EB07130DD91E462246043A032ABC
:1030C00046F8045BFAD8221F22F0030204321344AC
:1030D00004F003042CB1C9B21C4403F8011B9C4248
:1030E000FBD1F0BC704714460346C5E7C9B200F0F7
:1030F0000303002943D07BB10378002B67D09942AA
:103100003CD0431C05E013F8012B002A5DD08A4215
:1031100034D09A071846F6D170B4046841EA012603
:1031200046EA064686EA0405A5F10133A4F1013218
:1031300023EA050322EA0402134313F0803F0FD170
:1031400050F8044F84EA0605A5F10132A4F10133D9
:1031500022EA050223EA0403134313F0803FEFD071
:10316000037843B1994202D106E08B4204D010F8B3
:10317000013F002BF9D1184670BC704770475BB116
:103180000378002BFAD0431C03E002780133002AB5
:10319000F4D099071846F8D10268A2F1013323EA66
:1031A000020313F0803F08D150F8042FA2F101333D
:1031B00023EA020313F0803FF6D00378002BDDD022
:1031C00010F8013F002BFBD170471046704718469E
:1031D000704700BF30B40478DCB10D789DB1AC42CB
:1031E0000FD00A4601E09C420BD012F8013F002BA1
:1031F000F9D110F8014F002CF0D11378002B08BF43
:10320000002030BC704710F8014F0A46002CE5D171
:10321000F3E72046F5E700BF70B40478A4B10D7859
:1032200006464DB1A5420AD00A4601E0A34206D0A7
:1032300012F8013F002BF9D1801B70BC704710F8C9
:0C324000014F002CEDD1F7E72046F6E727
:10324C00EC370008F0120020F0120020F0120020E1
:10325C00EC370008000000200000002000000020D7
:10326C00EC37000800C0012000C0012000C0012084
:10327C00EC37000800000000000000000000000017
:10328C00EC370008000000100000001000000010D7
:10329C00EC37000800400240004002400040024071
:1032AC00EC370008000000000000000000000000E7
:1032BC00EC370008000000000000000000000000D7
:1032CC0000000000910E0008710E0008D10E0008DD
:1032DC00B10E0008C10E0008A10E0008810E0008F6
:1032EC00610E0008E10E00088025000000000000BF
:1032FC000000000018330008A808002080090020F6
:10330C0001000000211700080000000069646C65D2
:10331C00000000006E6F6E616D6500006D61696E7E
:10332C0000160028040444080C1014181C20212238
:10333C0000000000286E756C6C290000200900004C
:10334C0043686962694F532F5254205368656C6C03
:10335C000D0A000063683E2000000000746F6F20AF
:10336C006D616E7920617267756D656E74730D0A8F
:10337C000000000068656C70000000005573616708
:10338C00653A2025730D0A00436F6D6D616E647391
:10339C003A2068656C7020002573200025730000AE
:1033AC00203F0D0A000000006563686F20226D65E8
:1033BC00737361676522000025730D0A000000001D
:1033CC00696E666F00000000352E302E3000000054
:1033DC004B65726E656C3A202020202020202573CE
:1033EC000D0A000047434320372E322E3120323055
:1033FC00313730393034202872656C65617365293A
:10340C00205B41524D2F656D6265646465642D3798
:10341C002D6272616E6368207265766973696F6E76
:10342C00203235353230345D00000000436F6D7052
:10343C00696C65723A202020202025730D0A00004B
:10344C0041524D7637452D4D0000000041726368A6
:10345C0069746563747572653A2025730D0A0000F2
:10346C00436F727465782D4D34000000436F7265A4
:10347C002056617269616E743A2025730D0A000042
:10348C00416476616E636564206B65726E656C2059
:10349C006D6F646500000000506F727420496E6699
:1034AC006F3A2020202025730D0A000053544D3311
:1034BC003246343037204869676820506572666F31
:1034CC00726D616E63652077697468204453502077
:1034DC00616E642046505500506C6174666F726D5D
:1034EC003A202020202025730D0A000053544D69EA
:1034FC0063726F656C656374726F6E69637320536E
:10350C00544D333246342D446973636F766572794A
:10351C0000000000426F6172643A202020202020BD
:10352C00202025730D0A0000202D20004A756C20E8
:10353C0020342032303138004275696C6420746953
:10354C006D653A2020202573257325730D0A000024
:10355C0031373A31313A3233000000006D656D007D
:10356C00636F72652066726565206D656D6F72792B
:10357C00203A2025752062797465730D0A000000CD
:10358C006865617020667261676D656E747320206A
:10359C00203A2025750D0A006865617020667265F9
:1035AC006520746F74616C20203A20257520627937
:1035BC007465730D0A0000006865617020667265A1
:1035CC0065206C6172676573743A20257520627989
:1035DC007465730D0A00000073797374696D65006E
:1035EC00256C750D0A0000007468726561647300C7
:1035FC0073746B6C696D6974202020207374616323
:10360C006B20202020206164647220726566732018
:10361C007072696F202020202073746174652020E3
:10362C00202020202020206E616D650D0A0D0A00DF
:10363C002530386C78202530386C78202530386C63
:10364C00782025346C752025346C75202539732031
:10365C00253132730D0A0000CC330008012B000811
:10366C0060370008E12A0008E4350008B12A000898
:10367C0068350008512C0008F4350008C12B0008EF
:10368C000000000000000000D4360008DC36000802
:10369C00E4360008EC360008F8360008003700085D
:1036AC0008370008103700081837000824370008BE
:1036BC002C3700083437000840370008483700081A
:1036CC005037000858370008524541445900000053
:1036DC0043555252454E5400575453544152540082
:1036EC0053555350454E44454400000051554555E3
:1036FC0045440000575453454D00000057544D5459
:10370C00580000005754434F4E440000534C45455D
:10371C0050494E470000000057544558495400008A
:10372C0057544F52455654005754414E44455654E5
:10373C0000000000534E444D53475100534E444D2E
:10374C005347000057544D534700000046494E4123
:10375C004C0000006563686F0000000062746E5FCF
:10376C0050585858000000000000000000000000F5
:10377C00A12D0008812D00087368656C6C00000099
:10378C002C080020C037000855736167653A206823
:10379C00656C6C6F0D0A000048656C6C6F20576F80
:1037AC00726C642066726F6D2043686962694F5356
:1037BC00210D0A00D0370008F12E0008000000008F
:0C37CC000000000068656C6C6F000000DD
:0837D80050CBFF7F010000004F
:0C37E00000C2010000000000000000001A
:04000005080002C924
:00000001FF
